{
  "contractName": "XuluSystemChain",
  "abi": [
    {
      "inputs": [],
      "payable": true,
      "stateMutability": "payable",
      "type": "constructor"
    },
    {
      "constant": true,
      "inputs": [],
      "name": "getOwnerName",
      "outputs": [
        {
          "internalType": "address",
          "name": "",
          "type": "address"
        }
      ],
      "payable": false,
      "stateMutability": "view",
      "type": "function"
    },
    {
      "constant": false,
      "inputs": [
        {
          "internalType": "address payable",
          "name": "wallet",
          "type": "address"
        },
        {
          "internalType": "uint256",
          "name": "inheritanceAmount",
          "type": "uint256"
        }
      ],
      "name": "setInherintance",
      "outputs": [],
      "payable": false,
      "stateMutability": "nonpayable",
      "type": "function"
    },
    {
      "constant": true,
      "inputs": [],
      "name": "getWallets",
      "outputs": [
        {
          "internalType": "address payable[]",
          "name": "",
          "type": "address[]"
        }
      ],
      "payable": false,
      "stateMutability": "view",
      "type": "function"
    },
    {
      "constant": true,
      "inputs": [
        {
          "internalType": "address",
          "name": "own",
          "type": "address"
        }
      ],
      "name": "getInheritanceAmount",
      "outputs": [
        {
          "internalType": "uint256",
          "name": "",
          "type": "uint256"
        }
      ],
      "payable": false,
      "stateMutability": "view",
      "type": "function"
    },
    {
      "constant": false,
      "inputs": [],
      "name": "deceased",
      "outputs": [],
      "payable": false,
      "stateMutability": "nonpayable",
      "type": "function"
    }
  ],
  "bytecode": "0x6080604052336000806101000a81548173ffffffffffffffffffffffffffffffffffffffff021916908373ffffffffffffffffffffffffffffffffffffffff160217905550346001819055506000600260006101000a81548160ff0219169083151502179055506107f3806100756000396000f3fe608060405234801561001057600080fd5b50600436106100575760003560e01c8063145ef6e91461005c57806352a783d9146100a657806372faf2d9146100f45780639997d75c146100fe578063db7a460514610156575b600080fd5b6100646101b5565b604051808273ffffffffffffffffffffffffffffffffffffffff1673ffffffffffffffffffffffffffffffffffffffff16815260200191505060405180910390f35b6100f2600480360360408110156100bc57600080fd5b81019080803573ffffffffffffffffffffffffffffffffffffffff169060200190929190803590602001909291905050506101de565b005b6100fc61034e565b005b6101406004803603602081101561011457600080fd5b81019080803573ffffffffffffffffffffffffffffffffffffffff169060200190929190505050610435565b6040518082815260200191505060405180910390f35b61015e610507565b6040518080602001828103825283818151815260200191508051906020019060200280838360005b838110156101a1578082015181840152602081019050610186565b505050509050019250505060405180910390f35b60008060009054906101000a900473ffffffffffffffffffffffffffffffffffffffff16905090565b6000809054906101000a900473ffffffffffffffffffffffffffffffffffffffff1673ffffffffffffffffffffffffffffffffffffffff163373ffffffffffffffffffffffffffffffffffffffff16146102a0576040517f08c379a000000000000000000000000000000000000000000000000000000000815260040180806020018281038252601f8152602001807f546869732066756e6374696f6e20697320666f72206f776e6572206f6e6c790081525060200191505060405180910390fd5b60038290806001815401808255809150509060018203906000526020600020016000909192909190916101000a81548173ffffffffffffffffffffffffffffffffffffffff021916908373ffffffffffffffffffffffffffffffffffffffff1602179055505080600460008473ffffffffffffffffffffffffffffffffffffffff1673ffffffffffffffffffffffffffffffffffffffff168152602001908152602001600020819055505050565b6000809054906101000a900473ffffffffffffffffffffffffffffffffffffffff1673ffffffffffffffffffffffffffffffffffffffff163373ffffffffffffffffffffffffffffffffffffffff1614610410576040517f08c379a000000000000000000000000000000000000000000000000000000000815260040180806020018281038252601f8152602001807f546869732066756e6374696f6e20697320666f72206f776e6572206f6e6c790081525060200191505060405180910390fd5b6001600260006101000a81548160ff02191690831515021790555061043361061e565b565b600060011515600260009054906101000a900460ff161515146104c0576040517f08c379a00000000000000000000000000000000000000000000000000000000081526004018080602001828103825260178152602001807f4f776e6572206d7573742062652064656365617365642100000000000000000081525060200191505060405180910390fd5b600460008373ffffffffffffffffffffffffffffffffffffffff1673ffffffffffffffffffffffffffffffffffffffff168152602001908152602001600020549050919050565b606060011515600260009054906101000a900460ff16151514610592576040517f08c379a00000000000000000000000000000000000000000000000000000000081526004018080602001828103825260178152602001807f4f776e6572206d7573742062652064656365617365642100000000000000000081525060200191505060405180910390fd5b600380548060200260200160405190810160405280929190818152602001828054801561061457602002820191906000526020600020905b8160009054906101000a900473ffffffffffffffffffffffffffffffffffffffff1673ffffffffffffffffffffffffffffffffffffffff16815260200190600101908083116105ca575b5050505050905090565b60011515600260009054906101000a900460ff161515146106a7576040517f08c379a00000000000000000000000000000000000000000000000000000000081526004018080602001828103825260178152602001807f4f776e6572206d7573742062652064656365617365642100000000000000000081525060200191505060405180910390fd5b60008090505b6003805490508110156107bb57600381815481106106c757fe5b9060005260206000200160009054906101000a900473ffffffffffffffffffffffffffffffffffffffff1673ffffffffffffffffffffffffffffffffffffffff166108fc600460006003858154811061071c57fe5b9060005260206000200160009054906101000a900473ffffffffffffffffffffffffffffffffffffffff1673ffffffffffffffffffffffffffffffffffffffff1673ffffffffffffffffffffffffffffffffffffffff168152602001908152602001600020549081150290604051600060405180830381858888f193505050501580156107ad573d6000803e3d6000fd5b5080806001019150506106ad565b5056fea265627a7a72315820856c8e2f579582da8d1c3af2aba1cc9c9c9a2de19515836c4166260da65efe9664736f6c63430005100032",
  "source": "// SPDX-License-Identifier: MIT\n\npragma solidity >=0.4.22 <0.9.0;\n\ncontract XuluSystemChain {\n    address owner;\n    uint fortune;\n    bool isDeceased;\n\n    address payable[] familyWallets;\n    mapping (address => uint) inheritance;\n\n    constructor() public payable {\n        owner = msg.sender;\n        fortune = msg.value;\n        isDeceased = false;\n    }\n\n    modifier onlyOwner {\n        require (msg.sender == owner, \"This function is for owner only\");\n        _;\n    }\n\n    modifier mustBeDeceased {\n        require (isDeceased == true, \"Owner must be deceased!\");\n        _;\n    }\n\n    function getOwnerName() view public returns (address) {\n        return owner;\n    }\n\n    function setInherintance(address payable wallet, uint inheritanceAmount) public onlyOwner {\n        familyWallets.push(wallet);\n        inheritance[wallet] = inheritanceAmount;\n    }\n\n    function getWallets() view public mustBeDeceased returns (address payable[] memory) {\n        return familyWallets;\n    }\n\n    function getInheritanceAmount(address own) view public mustBeDeceased returns (uint) {\n        return inheritance[own];\n    }\n\n    function payout() private mustBeDeceased {\n        for (uint index = 0; index < familyWallets.length; index++) {\n            familyWallets[index].transfer(inheritance[familyWallets[index]]);\n        }\n    }\n\n    function deceased() public onlyOwner {\n        isDeceased = true;\n        payout();\n    }\n}",
  "sourcePath": "/Users/hendinoviansyah/PROJECTS/smart_contract/contracts/XuluSystemChain.sol",
  "compiler": {
    "name": "solc",
    "version": "0.5.16+commit.9c3226ce.Emscripten.clang"
  },
  "schemaVersion": "3.4.1",
  "updatedAt": "2021-05-29T08:55:43.045Z",
  "devdoc": {
    "methods": {}
  },
  "userdoc": {
    "methods": {}
  }
}